:020000040800F2
:1000000038220020AD020008DB1800082511000886
:10001000D91800083D0400085F1A0008000000001D
:10002000000000000000000000000000ED010008DA
:10003000410400080000000049020008B51900084A
:10004000C7020008C7020008C7020008C70200086C
:10005000C7020008C7020008C7020008C70200085C
:10006000C7020008C7020008C70200083F040008D2
:10007000C7020008C7020008C7020008C70200083C
:10008000C702000800000000C7020008C7020008FD
:10009000C7020008C7020008C7020008C70200081C
:1000A000C7020008C7020008C7020008C70200080C
:1000B000C7020008C7020008C7020008C7020008FC
:1000C000C7020008C7020008C7020008C7020008EC
:1000D000C7020008C7020008C7020008591A000832
:1000E000C7020008C7020008C7020008C7020008CC
:1000F000C7020008C7020008C7020008000000008D
:1001000000000000C702000800000000C70200084D
:10011000C702000800000000C7020008C70200086C
:10012000C7020008C7020008C7020008C70200088B
:10013000C70200080000000000000000C70200081D
:10014000C7020008C702000800000000000000000D
:10015000000000000000000000000000000000009F
:10016000000000000000000000000000C7020008BE
:10017000C7020008000000000000000000000000AE
:1001800000000000C702000800000000000000009E
:10019000000000000000000000000000000000005F
:1001A0000000000000000000C7020008C7020008AD
:1001B000C7020008C7020008C702000800000000CC
:1001C00000000000C702000800000000000000005E
:1001D000C7020008C7020008DFF80CD000F01CF9C5
:1001E00000480047FD210008382200202C4B1968E8
:1001F0000868B0E8F04F80F30988BFF36F8F4FF0C5
:10020000000080F311887047000000000848006873
:10021000006880F308884FF0000080F3148862B60D
:1002200061B6BFF34F8FBFF36F8F00DF00BF00BF1A
:1002300008ED00E0DFF80C00016841F47001016096
:10024000704700BF88ED00E0EFF30980BFF36F8FC8
:10025000134B1A681EF0100F08BF20ED108A20E91A
:10026000F04F106009B44FF0500080F31188BFF3D5
:100270004F8FBFF36F8F02F00BFF4FF0000080F342
:10028000118809BC19680868B0E8F04F1EF0100F1B
:1002900008BFB0EC108A80F30988BFF36F8F7047F6
:1002A00028000020EFF305807047000006488047D3
:1002B00006480047FEE7FEE7FEE7FEE7FEE7FEE74B
:1002C000FEE7FEE7FEE7FEE73D1A0008D901000859
:1002D0002DE9F05F0546002092469B46884606467B
:1002E000814640241BE0284641464746224600F00E
:1002F00082F853465A46C01A914110D31146184607
:10030000224600F069F82D1A67EB01084F46224695
:100310000120002100F060F817EB00094E41201E7B
:10032000A4F10104DFDC484631462A464346BDE8D5
:10033000F09F40EA01039B0703D009E008C9121FA0
:1003400008C0042AFAD203E011F8013B00F8013B8F
:10035000521EF9D27047D2B201E000F8012B491EBB
:10036000FBD270470022F6E710B513460A46044652
:100370001946FFF7F0FF204610BD30B505462A4666
:100380000B4612F8010B13F8014B08B1A042F8D04C
:100390001CB1002802D06D1CF1E7284630BD10B515
:1003A000044604E00B7800F8013B03B1491C521EDF
:1003B000F8D2204610BDCAB2401E10F8011F8A4272
:1003C00002D00029F9D100207047421C10F8011B0F
:1003D0000029FBD1801A7047202A04DB203A00FA5A
:1003E00002F1002070479140C2F1200320FA03F38C
:1003F000194390407047202A04DB203A21FA02F08A
:100400000021704721FA02F3D040C2F1200291404E
:100410000843194670470000064C074D06E0E068A7
:1004200040F0010394E8070098471034AC42F6D33B
:10043000FFF7D6FE703C0008903C0008FEE77047CE
:100440007047000070B5044600F0F8F80546601CDF
:1004500002D004484068044400F0F0F8401BA04279
:10046000FAD370BD180000202DE9FC4FDFF8A0A1E1
:10047000002301250AF1040B03244FF00F0C0BF1AC
:10048000040EBDE005FA03F632406FD04F68012F2D
:1004900005D0022F03D0112F01D0122F17D1D0F881
:1004A00008905F0004FA07F829EA08090097D1F8D4
:1004B0000C8008FA07F848EA0908C0F8088047687D
:1004C000B7430E79C6F300169E403E434660C668A9
:1004D0004FEA430804FA08F7BE4301978F6807FA0A
:1004E00008F73743C7604E68022E01D0122E13D191
:1004F000DE0800EB86060096366A5F07FF0E0CFAF0
:1005000007F926EA0906D1F8109009FA07F949EA2D
:100510000609009EC6F820900668019FBE430F7929
:1005200007F0030707FA08F7374307604E68F6003D
:1005300065D5384E376E47F001073766366E23F0C3
:10054000030706F001060096334E3E44B146B668F6
:100550009F074FEA17780CFA08F7BE43B0F1904FA7
:1005600005D02E4FB84204D1012717E047E00027FD
:1005700014E02B4FB84201D102270FE0294FB842B7
:1005800001D103270AE0284FB84201D1042705E032
:10059000264FB84201D1052700E0062707FA08F7E1
:1005A0003743C9F80870DAF800605746D1F804807C
:1005B00096435FEAC83800D516433E60DBF800601A
:1005C0005F46D1F8048096435FEA883800D5164329
:1005D0003E60DEF800607746D1F8048096435FEA1B
:1005E000C82800D516433E60094F0C373E68D1F845
:1005F000048096435FEA882800D516433E605B1C62
:100600000A6832FA03F67FF43DAFBDE8FC8F0000C4
:1006100000040140001002400000014000040048B6
:1006200000080048000C0048001000480014004872
:100630000AB181617047816270470000014880689B
:100640007047000018000020024881684268114489
:10065000816070471800002010B50024032000F0CE
:1006600065F8002000F008F808B1012401E000F06E
:1006700025F8204610BD000070B50E4E054600243A
:10068000706898B14FF47A71B1FBF0F00A490968CB
:10069000B1FBF0F000F032FD40B9102D06D200227F
:1006A0002946501E00F022F8356000E00124204663
:1006B00070BD000018000020240000200A4882B00D
:1006C000016E41F001010166016E01F0010100912E
:1006D000816D41F080518165806D00F08050009007
:1006E00002B000F093B8000000100240F0B40E4BCE
:1006F0001B680C46C3F30223C3F10705042D00D980
:100700000425191D072901D2002300E0DB1E012664
:1007100006FA05F1491E214099409E40761E16407A
:100720003143F0BC01F0C0B90CED00E0064900F027
:10073000070208684FF6FF03184040EA0220034A08
:1007400010430860704700000CED00E00000FA055F
:100750002B492C4B0A6832214A432B4940B1B0F552
:10076000007F086829D020F4C06040F480602CE04D
:100770000868C0F34120022804D051F8800F20F40B
:10078000807022E0D1F8800020F48070C1F88000F1
:10079000086820F4C06040F400700860B2FBF3F019
:1007A000401C00E0401E4A69520501D50028F9D1DD
:1007B000486940050AD503207047C0F3412002284C
:1007C00006D051F8800F40F4807008600020704718
:1007D000D1F8800040F48070C1F88000086820F4EF
:1007E000C06040F400700860B2FBF3F0401C00E011
:1007F000401E4A695205DBD50028F9D1D8E7000030
:100800002400002040420F00007000400248816830
:1008100041F4804181607047007000402DE9F84349
:100820000446006800269D4D00035ED5A86D002794
:10083000C00008D4A86D40F08050A865A86D0127BD
:1008400000F080500090DFF85892D9F8001041F481
:100850008071C9F80010FFF7F1FE804606E000BF86
:10086000FFF7ECFEA0EB080002282BD8D9F8000017
:10087000C005F5D5D5F8900010F4407014D0216C67
:10088000814211D0D5F89000D5F8901020F4407036
:1008900041F48031C5F89010D5F8901021F48031E2
:1008A000C5F89010C5F89000C00711D0FFF7C6FE3C
:1008B000804641F2883907E0FFF7C0FEA0EB08014F
:1008C000494501D903260BE0D5F890008007F3D500
:1008D000D5F89000216C20F440700843C5F89000D2
:1008E0001FB1A86D20F08050A8652078C00707D000
:1008F000D5F88800616820F003000843C5F8880037
:100900002078800707D5D5F88800A16820F00C0072
:100910000843C5F888002078400707D5D5F8880037
:10092000E16820F030000843C5F88800207800070F
:1009300007D5D5F88800216920F0C0000843C5F824
:1009400088002078800607D5D5F88800616920F4F2
:1009500040600843C5F888002078400607D5D5F8E0
:100960008800A16920F440500843C5F88800207829
:10097000000607D5D5F88800E16920F44040084317
:10098000C5F888002088C00507D5D5F88800216AF9
:1009900020F440300843C5F888002088800507D53A
:1009A000D5F88800616A20F440200843C5F8880023
:1009B000208840050FD5D5F88800A16A20F44010A2
:1009C0000843C5F88800A06AB0F5801F03D1E86825
:1009D00040F48010E860208800050FD5D5F8880025
:1009E000E16A20F440000843C5F88800E06AB0F5E9
:1009F000800F03D1E86840F48010E8602088C004CC
:100A00000FD5D5F88800216B20F040700843C5F859
:100A10008800206BB0F1807F03D1E86840F480103B
:100A2000E86020884FF0006180040ED5D5F888007A
:100A3000626B20F040601043C5F88800606B88420C
:100A400003D1E86840F48010E860208840040ED5A7
:100A5000D5F88800A26B20F040601043C5F88800EC
:100A6000A06B884203D1E86840F48010E8602088D9
:100A700000040FD5D5F88800E16B20F04050084302
:100A8000C5F88800E06BB0F1805F03D1E86840F4FE
:100A90008030E8603046BDE8F88300000010024076
:100AA000007000402DE9F0470E4605004FF00007AA
:100AB00025D0DFF8AC81D8F8000000F00F00B0427C
:100AC0000CD2D8F8001021F00F013143C8F8001003
:100AD000D8F8000000F00F00B04210D12968614C36
:100AE000C80741F2883A5AD06868DFF87C91032839
:100AF00008D0022820682DD0400500282CDB0120DA
:100B0000BDE8F08720688001F9D5E06800F00302B5
:100B1000E068C0F30310401C032A19D0534A00BFF9
:100B2000B2FBF0F0E268C2F306225043E268C2F37F
:100B30004162521C5200B0FBF2F0484517D9A06840
:100B400010F0F00F0CD0880711D5A86840B10EE066
:100B5000474AE5E78003D0E700F092F8484506D918
:100B6000A06820F0F00040F08000A0608027A0681E
:100B7000696820F003000843A060FFF75FFD81462D
:100B800006E000BFFFF75AFDA0EB090151453AD836
:100B9000A068696800F00C00B0EB810FF2D1286802
:100BA000810714D5400703D5A06840F4E060A06039
:100BB0002878000705D5A06820F4605040F4E06074
:100BC000A060A068A96820F0F000084304E0802F2E
:100BD00003D1A06820F0F000A060D8F800104046D3
:100BE00001F00F01B14216D9016821F00F01314324
:100BF0000160FFF723FD074607E000BFFFF71EFD7A
:100C0000C11B514501D903207AE7D8F8000000F054
:100C10000F00B042F2D12878400705D5A068E968F6
:100C200020F4E0600843A0602878000706D5A0689B
:100C3000296920F4605040EAC100A06000F020F86B
:100C4000A1680C4AC1F30311515C01F01F01C840B7
:100C50000949086009480068BDE8F047FFF70CBD86
:100C6000002002400010024000B4C4040024F4003C
:100C700000366E01483C00082400002018000020C7
:100C8000184910B58868C0F381021748012A0BD0B3
:100C90008A68164BC2F38102022A06D08A68C2F320
:100CA0008102032A03D0002010BD184610BDCA6877
:100CB00002F00304CA68C2F30312521C032C02D0D0
:100CC000B0FBF2F001E0B3FBF2F0CA68C968C2F30E
:100CD00006225043C1F34161491C4900B0FBF1F0C9
:100CE00010BD0000001002400024F40000366E0128
:100CF0002DE9F84304007AD02078FA4DC00747D098
:100D0000A868E96800F00C0001F003010C2802D08B
:100D1000082817D001E0032914D06068B0F5803F9F
:100D200017D0B0F5A02F286817D020F480302860A5
:100D3000286820F4802028606068E0B1FFF77EFC1E
:100D4000064614E02868800322D560680028D2D0C7
:100D50001EE0286840F48030EDE740F480202860F1
:100D6000F7E700BFFFF76AFC801B642870D828688B
:100D70008003F7D50CE0FFF761FC064605E000BFF5
:100D8000FFF75CFC801B6428F0D828688003F7D448
:100D9000207880074CD5A868E96800F00C0001F0C5
:100DA00003010C2802D004280DD001E002290AD04A
:100DB000E068002828682BD040F480702860FFF796
:100DC0003DFC064619E02868400502D5E068002889
:100DD00091D06868217C20F0FE4040EA01606860A4
:100DE000C1480068FFF748FC002800D120E076E108
:100DF000FFF724FC801B0228B8D828684005F7D5E7
:100E00006868217C20F0FE4040EA016068600FE0E5
:100E100020F480702860FFF711FC064605E000BF53
:100E2000FFF70CFC801B0228A0D828684005F7D4E7
:100E30002078000729D560690028D5F8940013D0E0
:100E400040F00100C5F89400FFF7F8FB064606E005
:100E500090E000BFFFF7F2FB801B022886D8D5F890
:100E600094008007F6D510E020F00100C5F894004A
:100E7000FFF7E4FB064604E0FFF7E0FB801B0228D7
:100E800078D8D5F894008007F6D42078400761D54B
:100E9000A86D0026C00008D4A86D40F08050A86559
:100EA000A86D012600F08050009090480168C905A7
:100EB00011D40168804641F480710160FFF7BEFBE8
:100EC000074604E0FFF7BAFBC01B022852D8D8F847
:100ED0000000C005F6D5A068012815D00528D5F872
:100EE000900016D020F00100C5F89000D5F89000D1
:100EF00020F00400C5F89000A06841F28838B8B12D
:100F0000FFF79CFB07460EE0D5F8900040F001008B
:100F1000F0E740F00400C5F89000F5E7FFF78EFB1E
:100F2000C11B414526D8D5F890008007F6D50CE0C6
:100F3000FFF784FB074604E0FFF780FBC11B414538
:100F400018D8D5F890008007F6D41EB1A86D20F00F
:100F50008050A8652078800629D5A0690028D5F89A
:100F6000980013D040F00100C5F89800FFF766FB29
:100F7000064606E077E000BFFFF760FB801B022813
:100F800077D8D5F898008007F6D510E020F001005A
:100F9000C5F89800FFF752FB064604E0FFF74EFB4A
:100FA000801B022865D8D5F898008007F6D4E06940
:100FB000F0B3A968C1F38101032961D00228286830
:100FC00020F0807028600BD0E86820F00300E86013
:100FD000E86847490840E860FFF730FB04464BE00B
:100FE000FFF72CFB064604E0FFF728FB801B0228D6
:100FF0003FD828688001F7D4F4E908016FF00F02A8
:1010000002EB01110843218A5204490802EB4151C5
:10101000A26841EA02210843217D4FF07E4249083F
:1010200002EB41610843217B40EAC160E96800E0CE
:1010300062E0304A11400843E860286840F0807060
:101040002860E86840F08070E860FFF7F7FA04462F
:1010500005E000BFFFF7F2FA001B022809D8286854
:101060008001F7D548E004E0FFF7E8FA001B02280A
:1010700002D90320BDE8F88328688001F4D43BE05E
:101080000128F7D0E868226A00F00301914226D1D6
:10109000616A00F0F0020901103991421FD1A26A81
:1010A00000F4FE41B1EB022F19D194F82C2000F08E
:1010B0007841B1EBC26F12D1218E00F4C002490811
:1010C0004905A1F50011914209D194F8341000F0BE
:1010D000C06049084906A1F1007181420CD001208D
:1010E000C8E7000000100240180000200070004017
:1010F000FFFFEEFE0C809F010020BBE710B5401EF5
:10110000B0F1807F01D3012010BD4FF0E024606179
:101110000F21601700F0C8FC0020A06107202061AB
:10112000002010BDFEE70000044908B5CA6C024368
:10113000CA64C96C0140009108BD00000010024063
:10114000F0B50A680F2692FAA2F2B2FA82F30324EB
:101150008AE001259D402A407ED04D68012D01D0B6
:10116000022D20D18D68876892FAA2FCBCFA8CFC13
:101170004FEA4C0E04FA0EFC27EA0C0792FAA2FC86
:10118000BCFA8CFC4FEA4C0C05FA0CF52F43876037
:10119000CF680D68D0F804C02CEA050C7D434CEAFA
:1011A000050CC0F804C00F69D0F80CC092FAA2F583
:1011B000B5FA85F54FEA450E04FA0EF52CEA050C52
:1011C00092FAA2F5B5FA85F56D00AF404CEA070C2E
:1011D000C0F80CC04D68022D2FD1FF2A15D8D1F8C8
:1011E00014C0056A92FAA2F7B7FA87F7BF0006FAA9
:1011F00007F7BD4392FAA2F7B7FA87F7BF000CFAD8
:1012000007FC45EA0C05056217E0D1F814E0476ACF
:10121000150A95FAA5FCBCFA8CFC4FEA8C0C06FA70
:101220000CFC95FAA5F5B5FA85F5AD0027EA0C0793
:101230000EFA05FE47EA0E0747624D68076892FA04
:10124000A2FCBCFA8CFC4FEA4C0C04FA0CFE27EA18
:101250000E0792FAA2F200E005E0B2FA82F2520022
:1012600095402F4307605B1C0A6832FA03F57FF450
:1012700070AF0020F0BD00002DE9F0410446006889
:101280000D46012710F0010F3ED12969A868226898
:10129000084369691E4B1A40114308432060E868FF
:1012A000616821F4405101436160A869A16821F49B
:1012B00040710143A1604FF4406000F02DF8E0B1AF
:1012C0006A68D2B129881646124A002789B2B84600
:1012D00032F811203B463946FEF7FAFF090241EA8F
:1012E000106103027008181841EB08013246002310
:1012F000FEF7EEFFC0F31300E0602888E16A80B2D9
:1013000021F00F010143E1623846BDE8F0810000A1
:10131000F3E9FFEFFE3B0008124910B5D1F8881041
:1013200000240140B1F5806F0CD0B1F5006F0DD0F5
:10133000B1F5406F0FD000F001FB00F0CFFA00F0E4
:10134000DDFA01E000F0FAFA044609E000F096F850
:1013500030B1054C04E000F099F808B14FF40044B6
:10136000204610BD001002400024F40010B50024F7
:10137000C02823D11248D0F8880000F0C00040F403
:1013800040004038B0F540000AD040280CD08028FA
:101390000FD000F0D3FA00F0A1FA00F0AFFA01E0AC
:1013A00000F0CCFA044609E000F068F830B1054CD2
:1013B00004E000F06BF808B14FF40044204610BD83
:1013C000001002400024F40070B5002429492A4D81
:1013D0004FF40046032804D00C281AD030282FD010
:1013E00040E0D1F888006FF4403100F0030040F491
:1013F000403040180AD0012836D002282ED000F004
:101400009DFA00F06BFA00F089FA17E000F096FA06
:1014100014E0D1F8880000F00C0040F44020001FD8
:10142000B0F54020F2D004281ED0082816D000BF06
:1014300000F084FA00F052FA00F060FA044611E07D
:10144000D1F8880000F0300040F440101038B0F5BA
:101450004010DBD0102807D02028E9D100F016F882
:1014600000B13446204670BD00F008F80028F9D0DD
:101470002C46F7E7001002400024F4000248006800
:10148000C0F3802070470000001002400248D0F8EE
:101490009000C0F340007047001002402DE9F04179
:1014A000044600680D46012610F0010F4CD1296951
:1014B000A868EA69084369691143084321682B4A0F
:1014C000114008432060E868616821F440510143FD
:1014D0006160A869A16821F440710143A1602448BA
:1014E000844201D1032008E02248844201D10C202B
:1014F00003E02148844203D13020FFF765FF05E077
:101500001E48844219D1C020FFF730FFA8B1696896
:1015100099B12A680026EB690B2A0ED8184FD2B26F
:10152000B3F5004F57F82220B0FBF2F00FD000EBDC
:101530005100B0FBF1F080B2E0602888E16A80B22F
:1015400021F00F010143E1623046BDE8F081400027
:1015500000EB5100B0FBF1F081B24FF6F07201EAFE
:101560000200C1F342010843E6E70000F369FFEF20
:10157000003801400044004000480040004C00405A
:10158000183C0008144808B5816C41F004018164DE
:10159000816C01F004010091816C41F001018164D2
:1015A000806C00F0010000900C480068C0F302203D
:1015B000011D072901D2002000E0C01E002181404A
:1015C0000801074981F800044FF0E0214FF4006062
:1015D000C1F8000108BD0000001002400CED00E061
:1015E0000BE000E010B5044A0021044800F0AAFE18
:1015F0000349086010BD0000D43B00087D1D0008B1
:101600001000002030B587B014216846FEF7AAFE0E
:101610001F48C16C41F00401C164C16C01F00401B8
:101620000591C16C41F02001C164C16C01F0200141
:101630000591C16C41F00101C164C16C01F001016F
:101640000591C16C41F00201C164C06C4FF090453E
:1016500000F002000590002220212846FEF7E8FF56
:101660004FF4005000900B480024CDE90104694676
:101670000948FEF7F9FE202000900120CDE9010481
:10168000694628460394FEF7EFFE07B030BD000020
:10169000001002400000111000080048F0B58FB0A3
:1016A0001C2106A8FEF75EFE18216846FEF75AFECA
:1016B0002848C16D41F00101C165C06D00F0010015
:1016C0000D900120FFF730FD042000900226002538
:1016D000CDE901650C24CDE904544FF090476946EB
:1016E00038460395FFF72CFD08200090CDE90165F1
:1016F000CDE90454694638460395FFF721FD4FF4C0
:10170000E130CDE90650CDE90A54134C089509950E
:1017100006A920460C95FFF7AFFDA06865F35F7042
:10172000A060A06820F06060A060206820F00050F9
:101730002060206840F001002060E069C0F3405064
:101740000028FAD0E069C0F380500028F5D00FB02F
:10175000F0BD00000010024000800040F0B58FB0E6
:10176000202106A8FEF7FEFD18216846FEF7FAFDC7
:101770005248816D41F480218165806D00F48020A4
:101780000E900220FFF7D0FC4FF4806000900226FC
:101790000024CDE901644A4F072569463846039481
:1017A000CDE90445FFF7CCFCB0020090CDE901641F
:1017B00001200595CDE9034069463846FFF7C0FC96
:1017C0004048D0F8001821F0FF0141F01C01C0F89A
:1017D00000183D490A78825844F210039A430B7866
:1017E000C2500A7882580B7822F44052C2500A78CC
:1017F00082580B7822F02002C2500A7882580B7867
:1018000022F04002C2500A7882580B7842F08002DF
:10181000C2500A7882580B7822F44072C2500A787B
:101820008258097822F44062425028480068C0F388
:101830000220011D072901D2002000E0C01E04FA89
:1018400000F10801224981F8000421498020233950
:10185000C1F800014FF4E130CDE906400C20CDE99C
:101860000A401C4D089409940C9406A928460D942E
:10187000FFF714FEA86864F35F70A860A86820F002
:101880006060A860286820F000502860686820F434
:1018900090406860A86820F02A00A860286840F09E
:1018A00001002860E869C0F340500028FAD0E869D8
:1018B000C0F380500028F5D00FB0F0BD00100240FA
:1018C0000004004800000240F83B00080CED00E076
:1018D00027E000E000480040FEE7704705498968BE
:1018E000054A01F0F0010909515C01F01F01C840EF
:1018F0007047000000100240483C00080549896814
:10190000054A01F4E06102EB1121097801F01F01A1
:10191000C840704700100240583C000805498968DB
:10192000054A01F4605102EBD121097801F01F0151
:10193000C840704700100240583C000807488068C3
:1019400000F00C010648042906D0082903D00C2910
:1019500002D100F009B803487047000000100240AF
:101960000024F40000366E010F49C86800F003023D
:101970000E48022A02D0032A00D10D48CA68C2F3D9
:1019800006224243C868C96800F0F003012000EB5A
:101990001313B2FBF3F201F0C06100EB51604000A1
:1019A000B2FBF0F070470000001002400024F40089
:1019B00000366E0110B5FEF747FE01F0DFFE01288C
:1019C00003D0BDE8104001F00FBC10BD10B5A4B0AD
:1019D00038216846FEF7C6FC14211FA8FEF7C2FC9A
:1019E00044210EA8FEF7BEFC0020FEF7B1FE022047
:1019F000C1010391402104910421CDE90801009027
:101A00005521CDE90A1007900C900D906846FFF71C
:101A10006FF90F2000241F900320CDE920042294A9
:101A200004211FA82394FFF73DF8242013940E905F
:101A300011940EA8FEF7F2FE24B010BD054801680F
:101A400041F47001016003494FF000608039086083
:101A50007047000088ED00E0002000F08FB9FEE73D
:101A60000FB4054B10B503A9044A029800F03CF8E6
:101A700010BC5DF814FB000005200008A000002049
:101A80000FB4084B10B504A902AA039800F02CF873
:101A9000044602A9002000F03DF9204610BC5DF884
:101AA00014FB0000151D00080907090E002804DBBF
:101AB00000F1E02080F80014704700F00F0000F102
:101AC000E02080F8141D704702E008C8121F08C10A
:101AD000002AFAD170477047002001E001C1121FAF
:101AE000002AFBD1704700002DE9FF4F8BB09A46CA
:101AF0000F460446002606E025280BD052460D99D5
:101B00009047641C761C20780028F5D10FB0304631
:101B1000BDE8F08F0025A94601227D4900E005437C
:101B200014F8013F203B02FA03F00842F7D1207875
:101B30002E2817D114F8010F45F004052A280ED0DD
:101B40006FF02F022078A0F1300109290AD809EBA3
:101B5000890102EB410100EB0109641CF2E757F82F
:101B6000049B641C20786C280DD004DC4C2812D017
:101B70006A2811D104E074280DD07A280CD10AE02B
:101B800045F4001507E0617845F48015814202D1E3
:101B9000641C05F58015641C207869283ED006DC9D
:101BA0000028B3D063280BD0642804D136E0732812
:101BB00010D075285CD052460D999047761CA5E050
:101BC00017F8040B8DF8000000208DF80100E8469E
:101BD000012003E057F8048B4FF0FF3069074FF006
:101BE000000501D40AE06D1C4D450DDA8542FADB93
:101BF00018F805100029F6D106E06D1C8542FCDBC3
:101C000018F805100029F8D12E4404E018F8010B4B
:101C100052460D9990476D1EF8D277E000200A9049
:101C2000C5F302504FF00A0B02280CD001CFC117A8
:101C3000021E71F100020CDA0023D0EB030063EB0B
:101C400001012D2208E0FF1D27F00707F7E8020138
:101C5000EEE72A0504D52B228DF82420012203E08B
:101C6000EA070FD02022F7E70DF12008089218E0CC
:101C700000200A90C5F302504FF00A0B022803D04F
:101C800001CF00210022EFE7FF1D27F00707F7E84B
:101C90000201F7E75A460A9BFEF71AFB303208F8B2
:101CA000012D50EA0102F5D1ADEB080000F1200B47
:101CB000680701D44FF00109D94502DDA9EB0B00FB
:101CC00000E000208146002506E009A85246405D5C
:101CD0000D9990476D1C761C08988542F5DB04E051
:101CE000302052460D999047761CB9F10001A9F1B8
:101CF0000109F5DC05E018F8010B52460D999047F3
:101D0000761CBBF10001ABF1010BF4DC641CFAE6BC
:101D1000092801000A68531C0B601070704700000E
:101D200000B589B007A0FFF79BFE00F0D7F9024687
:101D300008A16846FFF7A4FE684600F0ABFF09B0B3
:101D4000002000BD636F6D6D616E6420636C6F7306
:101D5000650A000041542B5146434C4F53453D25E5
:101D60007300000010B504A100F0D0F908B1022002
:101D700010BD052010BD00004F4B0000002600F0F4
:101D800099FF08B900F0F0F900F0ACF900E056B99D
:101D900000F04AF90446C068006980473220FEF727
:101DA00051FBE068876800213A46072000F072FA8C
:101DB000054601461FA0FFF753FEA81C21D0042DA5
:101DC000E5D0214921A0FFF74BFEE06841691E489C
:101DD00088470328DBD001281ED0042824D00528FA
:101DE00024D06068401C60601B48006800F09EFFC3
:101DF000054600F095FF01462A4618A0FFF730FE81
:101E0000C5E7E16860684968884202DA401C6060A2
:101E1000BDE700F0A9F9BAE7E0680026C068FEF760
:101E200011FB00F0D3F9DFE70126DDE700F09CF9B4
:101E3000DAE700007761697420726573756C74204D
:101E40003D2025640A000000B4000020627566662B
:101E500065723A25730A0000100000206E756D62ED
:101E60006572323D256C642C20256C640A000000EC
:101E700010B504A0FFF7F4FD07A000F00BFF002051
:101E800010BD000073656E6420636F6D6D616E64DC
:101E9000206C6973740A000041542B514644574C1E
:101EA0003D225546533A4E6577426F79322E68652A
:101EB00078220D0A0000000010B504A100F026F9F8
:101EC00008B1022010BD012010BD00004F4B0000E2
:101ED00000B589B006A0FFF7C3FD0AA20DA16846B0
:101EE000FFF7CEFD684600F0D5FE09B0002000BD2A
:101EF00073656E6420636F6D6D616E64206F7065D5
:101F00006E0A00005546533A4E6577426F79322E7D
:101F10006865780041542B51464F50454E3D25731E
:101F20002C20320010B5044607A100F0EFF830B1C4
:101F300006A1204600F0EAF808B1022010BD2046B4
:101F400000F076F8012010BD4F4B0000343236000F
:101F500000B589B007A0FFF783FD00F0BFF8024687
:101F600008A16846FFF78CFD684600F093FE09B0B3
:101F7000002000BD636F6D6D616E642072656164E9
:101F80000A00000041542B5146524541443D2573FF
:101F90002C3530300000000070B5054610A0FFF76A
:101FA0005FFD13A1284600F0B9F8134C30B113A11E
:101FB000284600F0C5F850B1022070BD10A1284697
:101FC00000F0ACF808B101202070042070BD20782A
:101FD00018B100202070012070BD032070BD0000EA
:101FE0007265636569766520646174610A0000004A
:101FF000434F4E4E454354000C0000204F4B000011
:10200000353030000449C2B28A62CA69C2F3C012D4
:10201000002AFAD0704700000080004001480068A4
:10202000704700001400002000487047A400002002
:1020300070B5044619A0FFF713FD1DA529462046DB
:10204000FEF79BF9040013D02846FEF7BEF90444BE
:10205000A01C0D21641CFEF7AEF9021B2146174897
:10206000FEF79DF9154A0021505C202805D00CE0B0
:1020700013A0FFF7F5FC002070BD084603E013181D
:102080005B781354401C0328F9D3491C0429EBD373
:102090000A490FA0FFF7E4FC012070BD6765745F7B
:1020A00066696C655F68616E646C650A00000000BB
:1020B0002B51464F50454E3A0000000000000020D2
:1020C0006E6F7420666F756E64207B200A000000BE
:1020D00066696C653A25730A000000000048704785
:1020E0000000002010B5074A0748054B0021536047
:1020F000C36001240160C0E90114116010BD00003B
:10210000743B000804000020A400002010B5FEF776
:1021100034F908B1002010BD012010BD10B50C46E7
:1021200088B0014620226846FEF739F92146684604
:10213000FEF723F910B1002008B010BD0120FBE725
:1021400070B50D460446FFF769FF0A2803DD2044F9
:1021500029460A3801E029462046FEF70EF908B163
:10216000002070BD012070BD10B50FA0FFF778FCF6
:1021700072B6104948684FF0E02300221A61EFF36D
:102180001482920705D5EFF3148222F0020282F343
:1021900014880A6882F30888074A11608047BDE8FE
:1021A000104006A0FFF75CBC6A756D70206170700E
:1021B0000A0000000080000808ED00E06A756D70FC
:1021C0002061707020656E640A000000094908688B
:1021D000401C0860496800EB4002074811F83230A3
:1021E00001EBC20103600123836000234360C160EF
:1021F0007047000004000020A4000020FEF72CFA25
:10220000FFF7E4FBFFF7FEF9FFF7BCF9FFF7A6FACB
:10221000FFF744FA00F006F8FFF7E4F900F01CF8C5
:10222000FEE70000EFF3058068B9EFF3108209497B
:10223000086812B9EFF311820AB1022803D028B15D
:102240004FF0FF3070476FF00500704701200860C5
:10225000002070477800002010B5EFF3058070B9BA
:10226000EFF310820A49086812B9EFF311820AB13C
:10227000022804D0012805D04FF0FF3010BD6FF0C8
:10228000050010BD0220086000F0B6FE002010BD61
:10229000780000202DE9F84F894605464FEA0206EE
:1022A000EFF3058070B9EFF3108010B9EFF31180F0
:1022B00018B123480068022804D0002D05DA6FF019
:1022C00003041CE06FF0050419E05FEA897002D591
:1022D0004FF0000800E0A8460024924601F05CFAA6
:1022E0008346E71E53466A464146002001F0BEFA87
:1022F000012807D00EB36FF001040028F2D1204668
:10230000BDE8F88F00982C4004435FEAC9700BD0F9
:1023100035EA0400F3D056B101F03EFAA0EB0B0011
:10232000504506D9002006E02542E8D1F3E73C46B7
:10233000E5E7AAEB00008246D4E73C46DDE7000073
:10234000780000202DE9FF414FEA01034FF000051E
:10235000EFF30581039599BBEFF3108111B9EFF30A
:10236000118119B11F490968022938D040B380266C
:10237000182100244AB3176807B13C4697691FB17A
:1023800039467F1E382F02D21779FF0703D000206D
:1023900004B0BDE8F081576907B1BE08D2F808C0A3
:1023A000BCF1000F0DD0D5685C2D18D312693AB17D
:1023B00037B18DE806103246214601F0B4F903909A
:1023C0000DE0D7685FB912694AB903AACDE90012D6
:1023D000B2B2214601F07AF9012800D003950398A2
:1023E000D6E70000780000202DE9F041134C0F469D
:1023F000054666692068001D00F07EFC681C07D158
:1024000037B12168BDE8F0410D48091D00F0D2BC8C
:1024100020683544B5424560216805D2A068BDE812
:10242000F041091D00F0AEBC6068091D00F0AAFC77
:10243000206B854200D22563BDE8F0812800002092
:10244000540A00202DE9F041054600F0BFFC2D4C58
:102450002069401C206120682B4F10B1E06930B327
:102460002BE025602069012827D1002606EB860095
:1024700007EB800000F078FC761C382EF6D323485A
:1024800000F072FC2148143000F06EFC1F48283028
:1024900000F06AFC1D483C3000F066FC1B485030E0
:1024A00000F062FC194860601430A06005E020680C
:1024B000E96AC06A884200D82560E06A401CE06290
:1024C0006864E86AA169884200D9A06100EB8000D5
:1024D00007EB8000291D00F06DFC00F097FCE0691F
:1024E00000280CD02068E96AC06A884207D20849EF
:1024F0004FF080500860BFF34F8FBFF36F8FBDE880
:10250000F081000028000020A4050020040A00201B
:1025100004ED00E038B500F059FC104CA068C8B9D3
:102520000F4800F021FC0E48143000F01DFC0C4850
:102530002060143060600A4B00202833009003F1C3
:10254000500210210A2000F065FEA06010B105A124
:1025500000F0DAFCBDE8384000F058BC6400002010
:10256000680A0020546D72510000000030B4026C03
:102570000B46002A0BD0C1681144C1608468A14297
:1025800001D30168C16030BC1846FDF7D2BE30BC33
:1025900070472DE9F041856B174604460026026C12
:1025A00082B1C7B1E068FDF7C4FEE168206C091A8A
:1025B000E1602268914202D2A168081AE060022F0D
:1025C00016D017E02068A8B9A06801F095F9064672
:1025D0000020A0600EE06068FDF7ABFE216C606833
:1025E00008446060A168884204D32068606001E00C
:1025F00005B16D1E6D1CA5633046BDE8F08110B5B8
:10260000044690F8590058B101280CD002280FD088
:10261000502080F31188BFF34F8FBFF36F8FFEE719
:10262000206B00F007FC2046BDE8104000F002BC23
:1026300010BD000010484FF44061420706D0C01D95
:102640000D4920F00700411AC1F540610B4A0023F3
:102650000144C2E900030839103A21F00701116072
:102660004B600B600B1AC0E9001393604FF0004001
:102670005360D06070470000381200208C000020AA
:10268000144E154CA6F29C474FF08058DFF84C9042
:1026900012E000BF00F09AFBF068C568281D00F04A
:1026A0002BFB2069401E2061E068401EE06000F0C6
:1026B000ADFB2846FFF7A3FFE0680028EAD13868A1
:1026C0000128F9D9C9F80080BFF34F8FBFF36F8F8E
:1026D000F2E70000400A00202800002004ED00E09E
:1026E00070B51D46049C51B1C4F80020C4E90F0127
:1026F0000121204600F0C2FD84F84C5070BD2460DA
:10270000F4E700002DE9F05F8846DDE90B941546FB
:10271000834691009A460A9EA522206BFDF71BFE78
:102720006FF00301206B01EB8501084420F00707DF
:10273000780707D0502080F31188BFF34F8FBFF385
:102740006F8FFEE70025B8F1000F0FD05FF000009B
:10275000221818F8001082F8341018F8001011B17F
:10276000401C1028F4D384F8435001E084F834501E
:10277000382E00D33726E662C4E91365201D00F029
:10278000FEFA04F1180000F0FAFA2461C6F13800EC
:102790006462A061656584F85850524659463846CF
:1027A00000F062FA2060B9F1000F01D0C9F80040D2
:1027B000BDE8F09F30B5114900E011460A68824239
:1027C000FBD34B685C18844203D1406818444860CE
:1027D000084643681C18944209D1084C103C2468F0
:1027E000A24209D052681A4442600A681268026024
:1027F000814200D0086030BD0460F9E78C00002001
:1028000070B5002441600B4D0061914206D8D11A89
:102810008269914206D2011D686807E09A4203D29C
:10282000994201D3012403E0011D286800F0AAFAAF
:10283000204670BD6400002010B5044600F0C6FAC2
:10284000A06B28B15FF0000400F0E0FA204610BD54
:102850000124F9E730B589B03C4D6EE004980028BA
:1028600006DADDE90601059A90470498002864DB42
:10287000069C606910B1201D00F03EFA03A800F02C
:10288000D7F8024604980A2857D2DFE800F0050579
:10289000052D334A05052D3394F8280040F001003A
:1028A00084F828000599A069059B01442046FFF79C
:1028B000A7FF68B3216A2046884794F8280040079C
:1028C0003BD5002000900598A169002342181946C5
:1028D000204601F01BF9D8B9502080F31188BFF3CE
:1028E0004F8FBFF36F8FFEE714F8280F20F0010021
:1028F000207022E094F8280040F0010084F82800BD
:102900000598A06128B1811813462046FFF778FF8B
:1029100013E0502080F31188BFF34F8FBFF36F8F08
:10292000FEE794F82800810703D4204600F082FADD
:1029300003E020F0010084F82800002204A9A86820
:1029400000F0EEFD002889D109B030BD6400002000
:102950002DE9FC410F46054600F092FB01A800F06E
:1029600067F80446019818B101F03EF8BDE8FC8113
:10297000254EAFB170680068D0B30027291B3A46D6
:10298000B06800F0D5FA01F02FF80028EED11F4909
:102990004FF080500860BFF34F8FBFF36F8FE5E7B4
:1029A000A542EBD801F020F830682746C068C4681B
:1029B000201D00F0A1F994F82800410719D5A0695D
:1029C0002B4641193A462046FFF71AFFA8B10020CE
:1029D0000346014600902A46204601F097F860B968
:1029E000502080F31188BFF34F8FBFF36F8FFEE746
:1029F00007E020F0010084F82800216A204688477B
:102A0000B4E70127BAE700006400002004ED00E00D
:102A100006484168096829B14168C968C9684968B8
:102A2000016370474FF0FF31FAE7000028000020F3
:102A300070B5054600F0B0FE064E0446306984428B
:102A400003D200F009F8012000E0002028602046B1
:102A5000346170BD64000020F8B5194D20E0C068F5
:102A6000C4680668201D00F047F9216A204688479F
:102A700094F82800400713D5A0693044B04206D925
:102A800024616060211D286800F07CF908E00020C6
:102A90000346014600903246204601F037F838B12F
:102AA000286801680029DAD16968C5E90010F8BD15
:102AB000502080F31188BFF34F8FBFF36F8FFEE775
:102AC00064000020002101E0401C491C0278A52A76
:102AD000FAD0C1F38F00704708484068401C4FF09F
:102AE000500080F3118804D0BFF34F8FBFF36F8F76
:102AF000FEE7BFF34F8FBFF36F8FFEE79400002018
:102B0000074C2068016841B1C0680021D0F800007E
:102B1000FFF71EFFFFF79EFEF3E701210020F7E716
:102B2000640000202DE9F041044600F04FF994F9CB
:102B3000455004F1240609E0606A48B1304600F0CF
:102B40001BFF08B100F01EFA6D1E6DB2002DF3DC04
:102B50004FF0FF3684F8456000F058F900F036F980
:102B600094F9445004F1100709E0206948B138464F
:102B700000F002FF08B100F005FA6D1E6DB2002DE5
:102B8000F3DC84F84460BDE8F04100F03FB9000098
:102B90002DE9F0410546002700F072FA314E306809
:102BA00008B9FFF747FDF06805424BD1C5B30835BA
:102BB00068070ED005F00700C0F10800054468075B
:102BC00007D0502080F31188BFF34F8FBFF36F8F72
:102BD000FEE72DB37068854234D822481030014694
:102BE0000C6801E020460C466168A94202D22168C7
:102BF0000029F7D131688C4224D007682168016030
:102C000060680837411B10290FD96019420708D0A6
:102C1000502080F31188BFF34F8FBFF36F8FFEE713
:102C200010E041606560FFF7C5FD61687068401A9B
:102C30007060B268904200D2B060F068014300203A
:102C4000C4E9000100F0D0FE780707D0502080F3DF
:102C50001188BFF34F8FBFF36F8FFEE73846BDE893
:102C6000F08100007C00002010B5031F4FF080743D
:102C70001C601B1F21F001011960191F044B0B6020
:102C800014390A60091F6FF0020244380A6010BD4F
:102C9000D92A0008064906E0CB69C3F38013002B4C
:102CA000FAD08A62401C0278002AF5D170470000F1
:102CB00000480040084810B50168406881F04401B0
:102CC000014304D005A0FEF7CBFE002010BD06A0F6
:102CD000FEF7C6FE012010BD00F801086E6F7420DB
:102CE0007570646174650A0073686F756C64207533
:102CF00070646174650A0000D0E9013201699A606C
:102D0000D0E901235A604A68824201D182684A6050
:102D1000002202610868401E0860086870470000D1
:102D200001480069704700002800002008B90248E7
:102D30000068006BFFF7C6BE28000020034B03604D
:102D400003F15C000860802010607047800B002059
:102D5000044B036003F15C0008604FF48070106066
:102D600070470000DC0D002000F108014FF0FF3239
:102D7000C0E90112C16001610021016070470021BA
:102D80000161704730B50B685A1C02D000F108028F
:102D900002E0026904E02246546825689D42FAD99F
:102DA00053684B6099608A60516008610168491CF2
:102DB000016030BD42684A6093688B6093685960D7
:102DC000916008610168491C01607047502080F3E0
:102DD0001188BFF34F8FBFF36F8F0A494868401CBB
:102DE000486001280CD10848006810F0FF0F07D098
:102DF000502080F31188BFF34F8FBFF36F8FFEE732
:102E0000704700009400002004ED00E00849486885
:102E100028B1401E486001D180F3118870475020CE
:102E200080F31188BFF34F8FBFF36F8FFEE7000071
:102E30009400002070B5002827D0144DA0F108049C
:102E40006168E868014207D1502080F31188BFF320
:102E50004F8FBFF36F8FFEE722683AB1502080F3A7
:102E60001188BFF34F8FBFF36F8FFEE7814361601F
:102E700000F006F960686968084468602046FFF75A
:102E800099FCBDE8704000F0AFBD70BD7C00002033
:102E90004FF0E02000210161816105494FF47A7211
:102EA0000968B1FBF2F1491E4161072101617047D8
:102EB0002400002010B5FDF7F5F9114910280ED3B4
:102EC00000F1E02090F8F0030A78904207D25020F9
:102ED00080F31188BFF34F8FBFF36F8FFEE7094870
:102EE0000068896800F4E060884207D9502080F3C8
:102EF0001188BFF34F8FBFF36F8FFEE710BD000047
:102F0000940000200CED00E010B5084B002200BF3B
:102F100053F832401CB1521C082AF9D310BD43F8B3
:102F2000321003EBC201486010BD000064050020B0
:102F300070B515460E460446FFF748FF94F9441055
:102F40000020491C01D184F8440094F94510491C23
:102F500001D184F84500FFF759FFA06B28B92A4634
:102F6000314604F1240000F02BF82046BDE8704003
:102F7000FFF7D8BD02498A6A02604969416070471B
:102F800028000020014901204862704728000020E5
:102F900010B50C4650B1094909681831FFF7F2FE27
:102FA0002046BDE810400121FFF71EBA502080F3F3
:102FB0001188BFF34F8FBFF36F8FFEE7280000200B
:102FC00070B514460D4668B10A4909681831FFF713
:102FD000F1FE0CB14FF0FF3521462846BDE87040A8
:102FE000FFF702BA502080F31188BFF34F8FBFF371
:102FF0006F8FFEE72800002030B587B000240394CF
:1030000005AA04A903A80494FFF798FEDDE90301CB
:103010000094CDE90110002315A11748059A00F08E
:1030200082FB164D002868631FD000F03FFD012889
:1030300009D0401C19D1502080F31188BFF34F8F65
:10304000BFF36F8FFEE7502080F31188BFF34F8FDF
:10305000BFF36F8F4FF0FF3028630120E8616C6190
:1030600007B0BDE8304000F045B807B030BD000003
:1030700049444C450000000081260008280000203B
:103080000248816B491C81637047000028000020C2
:10309000164810B5816B11B10121416210BD0021AC
:1030A00041628169124A01E0B9B1491E01EB810315
:1030B00052F82330002BF7D001EB810302EB83029F
:1030C00002F1080453685B685360A34201D15B6856
:1030D0005360DA680260816110BD502080F311886E
:1030E000BFF34F8FBFF36F8FFEE700002800002073
:1030F000A40500201CB537480168374A914207D122
:10310000502080F31188BFF34F8FBFF36F8FFEE71E
:1031100000683149491E884207D1502080F3118848
:10312000BFF34F8FBFF36F8FFEE72C4908780190F4
:10313000FF20087008788DF800009DF800009DF8C9
:10314000002000F0F000904207D0502080F311885A
:10315000BFF34F8FBFF36F8FFEE79DF80000204B4A
:1031600000F0500018700720986005E09DF80020DE
:1031700052008DF80020401E9DF800201206F5D464
:103180009860032807D0502080F31188BFF34F8F39
:10319000BFF36F8FFEE74FF440709860019808709E
:1031A0000C482030016841F470010160016841F071
:1031B00070410160FFF76CFE00205860FDF73AF89F
:1031C0000848016841F040410160FDF71FF8002008
:1031D0001CBD000000ED00E071C20F4100E400E002
:1031E0009400002034EF00E010B5502080F31188E7
:1031F000BFF34F8FBFF36F8F00F0D4FA18B10449BB
:103200004FF080500860002080F3118810BD00004E
:1032100004ED00E038B5049D18B153B1CAB181B1D5
:1032200020E0502080F31188BFF34F8FBFF36F8FE2
:10323000FEE7502080F31188BFF34F8FBFF36F8FED
:10324000FEE7502080F31188BFF34F8FBFF36F8FDD
:10325000FEE739B1502080F31188BFF34F8FBFF3E1
:103260006F8FFEE750241C46012384F846302B461E
:103270000094FFF735FA204638BD000070B50D46C2
:10328000040025D0FFF7A2FDD4E90F20216802FB3E
:103290000011A1600021A163216861600A46D4E9A0
:1032A0000F01401E00FB0121E16021464FF0FF307D
:1032B00001F8440F487004F110008DB1FFF754FD80
:1032C00004F12400FFF750FDFFF7A0FD012070BDC1
:1032D000502080F31188BFF34F8FBFF36F8FFEE74D
:1032E00021690029F0D000F047FB0028ECD0044908
:1032F0004FF080500860BFF34F8FBFF36F8FE3E74D
:1033000004ED00E02DE9FF4782B01D468A464FF0EC
:103310000008040003D0BAF1000F08D011E05020DB
:1033200080F31188BFF34F8FBFF36F8FFEE7206CE0
:1033300038B1502080F31188BFF34F8FBFF36F8FE8
:10334000FEE7022D0AD1E06B012807D0502080F360
:103350001188BFF34F8FBFF36F8FFEE700F00EFAB7
:103360003F4F4FF000094FF0805648B9049838B1EC
:10337000502080F31188BFF34F8FBFF36F8FFEE7AC
:10338000FFF724FDA06BE16B884207D3022D05D027
:103390000498D0B1B8F1000F1AD01EE02A46514669
:1033A0002046FFF7F6F8616A19B104F1240000F035
:1033B000E3FA20B13E60BFF34F8FBFF36F8FFFF78B
:1033C00025FD012006B0BDE8F087FFF71FFD22E0D4
:1033D0006846FFF7CFFD4FF00108FFF717FDFFF735
:1033E0004FFEFFF7F3FC94F94400401C01D184F830
:1033F000449094F94500401C01D184F84590FFF7B2
:1034000005FD04A9684600F027F930B12046FFF712
:1034100089FB00F0E9FA0020D4E7FFF7D7FCA06BA6
:10342000E16B884213D1FFF7F1FC04F1100004991D
:10343000FFF7AEFD2046FFF775FB00F0D5FA002838
:103440009ED13E60BFF34F8FBFF36F8F98E7FFF7BA
:10345000DDFC2046FFF766FB00F0C6FA90E70000AF
:1034600004ED00E02DE9F0471F4690468946040030
:1034700003D0B9F1000F08D011E0502080F311887B
:10348000BFF34F8FBFF36F8FFEE7206C38B1502032
:1034900080F31188BFF34F8FBFF36F8FFEE7022FCA
:1034A0000AD1E06B012807D0502080F31188BFF3C8
:1034B0004F8FBFF36F8FFEE7FFF7FCFC5020EFF359
:1034C000118680F31188BFF34F8FBFF36F8FA06B0E
:1034D000E16B884206D3022F04D0002086F31188C6
:1034E000BDE8F08794F945503A4649462046FFF733
:1034F00050F8681C04D06D1C84F845500120EDE79D
:10350000606A0028FAD004F1240000F035FA00289F
:10351000F4D0B8F1000FF1D00121C8F80010EDE7A8
:103520002DE9F747002683B08A46040003D0BAF19C
:10353000000F08D011E0502080F31188BFF34F8FA7
:10354000BFF36F8FFEE7206C38B1502080F31188F5
:10355000BFF34F8FBFF36F8FFEE700F00FF9DFF877
:10356000F4804FF000094FF0805748B9059838B102
:10357000502080F31188BFF34F8FBFF36F8FFEE7AA
:10358000FFF724FCA56BC5B151462046FEF7EEFFC0
:103590006D1EA563206950B104F1100000F0ECF934
:1035A00028B1C8F80070BFF34F8FBFF36F8FFFF7DC
:1035B0002DFC012006B0BDE8F087059808B11EB1CA
:1035C00006E0FFF723FC27E06846FFF7D3FC01265F
:1035D000FFF71CFCFFF754FDFFF7F8FB94F94400DC
:1035E000401C01D184F8449094F94500401C01D15D
:1035F00084F84590FFF70AFC05A9684600F02CF80E
:10360000002820460AD0FFF78DFA00F0EDF9204699
:10361000FFF712F90028B3D00020CBE7FFF70CF931
:1036200090B104F124000599FFF7B2FC2046FFF7A2
:1036300079FA00F0D9F90028A2D1C8F80070BFF3D8
:103640004F8FBFF36F8F9BE72046FFF76BFA00F0B9
:10365000CBF995E704ED00E02DE9F0410C460500BB
:1036600011D0C4B1FFF7B2FB174B5A696E682068DE
:10367000911B471C17D02F689B6A9F4219D0964216
:1036800017D8012410E0502080F31188BFF34F8F2A
:10369000BFF36F8FFEE7502080F31188BFF34F8F89
:1036A000BFF36F8FFEE70024FFF7B0FB2046BDE8B5
:1036B000F081884205D9401A20602846FFF75AFC5D
:1036C000F1E700202060DCE7280000202DE9FF5F03
:1036D0008346DDE90E87994616468A469000FFF735
:1036E00057FA05001CD05C20FFF752FA040014D0F2
:1036F0000020256384F85900CDE90240CDE9008718
:103700004B46324651465846FEF7FCFF2046FEF730
:1037100099FE012004B0BDE8F09F2846FFF78AFB20
:103720004FF0FF30F6E7F0B585B0DDE90B640A9D98
:10373000A6B1DCB15C2700972663022684F85960A5
:10374000002604AFCDE90246CDE90057FEF7DAFFC7
:103750002046FEF777FE049805B0F0BD502080F3B8
:103760001188BFF34F8FBFF36F8FFEE7502080F3B8
:103770001188BFF34F8FBFF36F8FFEE70548C16914
:1037800019B1806B18B100207047012070470220EA
:103790007047000028000020014840697047000081
:1037A000280000202DE9F0412E4C0027A06B40B1ED
:1037B000206A401C2062606A00B101273846BDE8DB
:1037C000F0816669761C666113D16068006838B163
:1037D000502080F31188BFF34F8FBFF36F8FFEE748
:1037E0006068A1686160A060A06A401CA062FFF7E9
:1037F0000FF9206BDFF87080864209D3606800689B
:1038000080B16068C068C568686886420DD2206370
:103810002068C06A00EB800158F821000128CAD94D
:103820000127C8E74FF0FF30F1E7281DFFF764FAE2
:10383000A86A18B105F11800FFF75EFAE86AA169F5
:10384000884200D9A06100EB800108EB8100291DAE
:10385000FFF7B0FAE86A2168C96A8842CED3012727
:10386000CCE7000028000020A40500202DE9F0414D
:103870001E46154688460746FFF7A8FA1C4C2068E6
:1038800090F85800022814D02068416DB943416572
:103890002168012081F858005EB101213046FEF711
:1038A000A3FD14494FF080500860BFF34F8FBFF362
:1038B0006F8FFFF7ABFAFFF789FA15B12068406DFB
:1038C0002860206890F85800022801D0002505E003
:1038D0002068416D21EA0801416501252168002029
:1038E00081F85800FFF792FA2846BDE8F081000001
:1038F0002800002004ED00E070B504004FF0000146
:1039000033D01B4D2868844207D0502080F31188A3
:10391000BFF34F8FBFF36F8FFEE7206D38B1401EAE
:103920002065E36CE26A9A421FD040B11DE050204E
:1039300080F31188BFF34F8FBFF36F8FFEE7201D19
:10394000FFF7DAF9E06CE062C0F13800A061E06AEC
:10395000A969884200D9A861064900EB800001EB03
:103960008000211DFFF726FA0121084670BD0000E6
:1039700028000020A405002070B5C068C46854B1B8
:1039800004F118000646FFF7B7F9144DA86B50B1C3
:103990003146134815E0502080F31188BFF34F8F54
:1039A000BFF36F8FFEE7201DFFF7A6F9E06AA96954
:1039B000884200D9A8610B4900EB800001EB800030
:1039C000211DFFF7F7F9E06A2968C96A884202D920
:1039D0000120686270BD002070BD0000280000203A
:1039E0002C0A0020A40500202DE9F0472C4D0024CE
:1039F0002746A86B38B1FFF7E9F9A86B401EA8630A
:103A0000A86B40B146E0502080F31188BFF34F8F80
:103A1000BFF36F8FFEE72969224E0120D1B3A6F5CF
:103A2000916980463068E0B1F068C46804F118001C
:103A3000FFF762F9201DFFF75FF9E06AA969884284
:103A400000D9A86100EB800109EB8100211DFFF77F
:103A5000B1F9E06A2968C96A8842E3D3C5F82480CD
:103A6000E0E70CB1FEF7D4FF2C6A4CB14FEA080630
:103A7000FFF798FE00B16E62641EF9D10020286243
:103A8000686A38B10849012738070860BFF34F8FCB
:103A9000BFF36F8FFFF7BAF93846BDE8F087000033
:103AA000280000202C0A002004ED00E010B586B0AC
:103AB000FEF730FD114CA068B8B1002003900490CF
:103AC00005AA04A903A8FFF743F9DDE903210220B1
:103AD0008DE8070000230AA10B48059AFFF723FE93
:103AE000E06010B106B0012010BD502080F31188B5
:103AF000BFF34F8FBFF36F8FFEE70000640000201D
:103B0000546D722053766300012B00082DE9FF41AC
:103B10001E46134602000A9D4FF0000016D0144CBA
:103B2000A768002F0FD0CDE900130292062917DAFB
:103B3000FFF724FE02284FF000030FD00022694651
:103B4000A068FFF7DFFB04B0BDE8F081502080F3F0
:103B50001188BFF34F8FBFF36F8FFEE72A46EEE762
:103B60000023324669463846FFF77CFCEBE700004D
:103B7000640000200000000003000000E8030000D3
:103B80002C010000711E0008B91E00080100000091
:103B900003000000B80B00002C010000D11E00083B
:103BA000251F00080200000003000000B80B000001
:103BB0002C010000511F0008991F0008030000009D
:103BC00003000000B80B00002C010000211D0008BC
:103BD000651D0008603C00080000000000000000B7
:103BE00000000000000000000002000018000000BB
:103BF0000000000000000000081C3044586C010068
:103C000002000400060008000A000C00100020005A
:103C100040008000000100000100000002000000E0
:103C20000400000006000000080000000A00000078
:103C30000C00000010000000200000004000000008
:103C400080000000000100000000000000000000F3
:103C50000102030406070809000000000102030432
:103C600061745F646F776E6C6F616466696C650028
:103C7000903C000800000020A4000000C81A0008C2
:103C8000343D0008A400002094210000D81A000848
:103C90000000000000000000000000000000000024
:103CA0000000000000000000100000000100000003
:103CB000000000000024F4000000000000000000EC
:103CC00000000000000000000000000000000000F4
:103CD00000000000000000000000000000000000E4
:103CE00000000000000000000000000000000000D4
:103CF00000000000000000000000000000000000C4
:103D000000000000000000000000000000000000B3
:103D100000000000000000000000000000000000A3
:103D20000000000000000000AAAAAAAA00000000EB
:043D3000000000008F
:04000005080001D915
:00000001FF
